:020000020000FC
:0200000026C018
:02000C0063C0CF
:10004C0037C00C947E071091A2000BD0139509D0E9
:10005C0013955CD059D0103108F011271093A200E1
:10006C000895A2E9B0E009D0A2E8B0E006D0A2E77A
:10007C00B0E003D007D04CD00895A10FB21D0C9165
:10008C0047D008951F9301E01695112319F0000F26
:10009C001A95E9F700951F9108950DE003BF0EE046
:1000AC0005BD05E00CBF01E003BD02E809BF0895E2
:1000BC000F930FB70F931F932F93C5DF2F911F91A2
:1000CC000F910FBF0F9118950F930FB70F931F93AD
:1000DC002F933F934F935F938F93AF93BF93CAD359
:1000EC0095D2BF91AF918F915F914F913F912F918D
:1000FC001F910F910FBF0F91189510EB17BB10E5C7
:10010C001DB911E01EB90895C4980895C49A0895B4
:10011C000FB9779BFECF6F9808950F9309D007E224
:10012C00000F039503B912D00F910DD004D0089590
:10013C0004EA06BF0DC004E906BF04EA0A95F1F70C
:10014C00089503B903C002D033B1089504E806BF83
:10015C0006B707FFFDCF089506E900B9002701B9DE
:10016C0004E006BF08953F934F9338E20E9490023B
:10017C0040E30E94FA0035E00E9490020E94FA00CF
:10018C0031E00E9490020E94FA0040E20E94FA00C4
:10019C0040E20E94FA0040EC0E94FA0044270E94C0
:1001AC00FA0040E80E94FA0044270E94FA0040E15D
:1001BC0032E00E94900244270E94FA0040E60E941E
:1001CC00FA0044270E94FA0040EC0E94FA002092A8
:1001DC006C0020926D000E94B9010E94C2010E9425
:1001EC009A014F913F9108954F9348604B7F0F9325
:1001FC009FDF00E2000F03B9A9DF0F91042FA1DFED
:10020C009ADF44600F9394DF00E2000F03B99EDF86
:10021C000F91042F96DF8FDF4B7F0F9389DF00E266
:10022C00000F03B993DF0F91042F8BDF84DF4F9105
:10023C0008954F930F93042F407F41600E94FA0062
:10024C00000F000F000F000F0160402F0E94FA00FA
:10025C000F914F91089544270E94FA0040E20E94AA
:10026C00FA0008954F9340EC0E94FA0040E00E947F
:10027C00FA004F9108954F933F9344270E94FA0040
:10028C0040E10E94FA0032E00E9490023F914F91AF
:10029C0008954F9340EC0E94FA0040EB0E94FA0044
:1002AC004F9108950F934F930091CD00033029F097
:1002BC00023089F00130A9F0C9F44FE60E94910197
:1002CC000E941F010E9488010E941F010E947F0151
:1002DC000E941F010BC00E947F0148E70E941F0172
:1002EC0005C00E94880148E70E941F014F910F91A1
:1002FC0008954F9340E80E94FA0040EB0E94FA00E8
:10030C004F9108954F9340E80E94FA0040ED0E94EF
:10031C00FA004F9108954F9340E80E94FA0040EF85
:10032C000E94FA004F9108950F934F930E94410140
:10033C0000E1EEE8F5E045910E941F010A95D9F71E
:10034C000FE0EEE9F5E00E94380145910E941F0193
:10035C000A95D9F743E04093CD0001E000936E007D
:10036C004F910F9108950F93A2E6B0E005E02D9206
:10037C000A95E9F70F9108950F93A7E6B0E005E011
:10038C002D920A95E9F70F9108950F934F930E94C0
:10039C0041010DE0ECEAF5E045910E941F010A9540
:1003AC00D9F70AE0EAEBF5E00E94380145910E948A
:1003BC001F010A95D9F70E941A020E94660201E0F9
:1003CC0000936D00002700936C0000936E004F911A
:1003DC000F9108950F931F934F930E94410106E0D4
:1003EC00E4ECF5E045910E941F010A95D9F74FE620
:1003FC000E9491010E941F010E9488010E941F010E
:10040C000E947F010E941F0107E0EAECF5E00E94C8
:10041C00380145910E941F010A95D9F70E943C02B0
:10042C004F911F910F9108950F931F932F9320E1DC
:10043C002A95A2E6B0E0C7E6D0E0A20FB21DC20F2B
:10044C00D21D0C911881011758F0221189F325E067
:10045C00A2E6B0E0C7E6D0E00D9109932A95E1F74A
:10046C000E94B9012F911F910F9108950F931F9323
:10047C003F934F93889414E00E944F01A2E6B0E0A2
:10048C00A10F0C91E2EDF5E0E00FF21D44910E94FA
:10049C001F0132E00E9490021A9581F7A2E6B0E0AB
:1004AC000C91E2EDF5E0E00FF21D44910E941F016A
:1004BC0001E000936C004F913F911F910F910895B3
:1004CC000F931F933F934F93889414E00E944F0116
:1004DC00A7E6B0E0A10F0C91E2EDF5E0E00FF21D04
:1004EC0044910E941F0132E00E9490021A9581F7FC
:1004FC00A7E6B0E00C91E2EDF5E0E00FF21D4491BF
:10050C000E941F0101E000936C004F913F911F91DD
:10051C000F9108951F932F931FEF2FEF2A95F1F74B
:10052C001A95D9F73A95C1F72F911F9108950F930A
:10053C001F9301E010916C0001130E94F0011F91B8
:10054C000F9108950F931F9301E010916E0001130A
:10055C000E949A011F910F9108950F931F9301E030
:10056C0010916D0001130E94CB011F910F91089502
:10057C0020926F0008951F9311E010936F001F914C
:10058C0008955350414345B0494E44415649445354
:10059C002121101010523110544F10535441525409
:1005AC0010101047414D45104F56455221004849F7
:1005BC00474853434F52453A4C495645533A504F8E
:1005CC00494E54533A00303132333435363738399A
:1005DC0000E407B907E806B908950F9302E0399AC9
:1005EC00369A3699FECF15B10F910895209270006E
:1005FC0008950F930091700090DD432F309370009D
:10060C004095040F09F03FEF0F9108950F931F933E
:10061C0000917100069510F418EB012700937100FE
:10062C001F910F910895009171000F700895209201
:10063C00A2000895A2E7B0E007D0A2E8B0E004D091
:10064C00A2E9B0E001D008950F9300E12D920A9534
:10065C00E9F70F9108953F934F93AF93BF9318D041
:10066C002ED020D0BF91AF914F913F910895AF9371
:10067C00BF930F931F932F933F934F93402F12D001
:10068C004F913F912F911F910F91BF91AF91089571
:10069C004FE0110F411B083008F402C008504150C4
:1006AC00142F0895A2E7B0E022FD11D0A2E8B0E02B
:1006BC0021FD0DD0A2E9B0E020FD09D0089540E85D
:1006CC00002321F046950A950023E1F708953F9306
:1006DC00A10FB21D3C91342B3C933F910895209275
:1006EC00A30008954F9340E1A2E8B0E00091A3006D
:1006FC00000FE8E0F7E0E00FF21D0994E2E8F7E004
:10070C0009C0E2E9F7E006C0E2EAF7E003C0E2EB79
:10071C00F7E000C005910D934A95E1F74F910895CC
:10072C0068DF30FF01C008950F9302E00E94FD03C3
:10073C000F911F9311E010936000209261001093B1
:10074C00A3001F9108950F931F932F932091A30043
:10075C0023952093A3000091610003950093610001
:10076C001EE1011304C022E02093600024D02F91DD
:10077C001F910F91089510082004F00FD81BFC3F17
:10078C00F42F1428600610082004F00FD81BFC3F2F
:10079C00F24F1008200410082004F00FDA5BFC3F25
:1007AC00F81F1008100810082424F42FDC3BFC3F21
:1007BC00F81F100808100FEF07BB2092A40020921E
:1007CC00A50004E00A9503D00023E1F7089514E096
:1007DC00A6EAB0E0A00FB21D2C92A10FB21D2C9274
:1007EC00A10FB21D2C92A10FB21D2C9208950F9344
:1007FC001F932F933F932091A50014E0269518F496
:10080C001A95E1F724C034E0311BEEE6F8E0000F56
:10081C00E00FF21D15912491E12FF22FEE0FFF1F27
:10082C00A6EAB0E019D0AAEAB0E016D0AEEAB0E081
:10083C0013D0A2EBB0E010D011E0332319F0110F5C
:10084C002A95E9F70091A500012B0093A5003F9193
:10085C002F911F910F910895A30FB21D05910C9329
:10086C0008953A043C043E040532C8000F0096007B
:10087C000300FF000091A500002369F014E0662737
:10088C00069558F01A95E1F7662309F40895C19975
:10089C0002C0C19A0895C19808950F931F9354E014
:1008AC00052F011BA6EAB0E0A00FB21D1C91A50FED
:1008BC00B21D2C91A50FB21D3C91A50FB21D4C91F0
:1008CC002395121769F0AAEAB0E0A00FB21D2C9381
:1008DC00A2EBB0E0A00FB21D4C931F910F91D2CFA1
:1008EC00639522274395341709F0EDCF0F936FDFF3
:1008FC0051E0002319F0550F0A95E9F75095009136
:10090C00A50005230093A5000F91E7CF0F9304E0FA
:10091C000093B6000F9108950F931F932F9320917E
:10092C00C9002223B9F40091B60057DE112319F047
:10093C00133029F00FC0222702130A9503C02FE0B1
:10094C00021303950F9300E00E94FD030F9113E037
:10095C001093C9000093B6002F911F910F91089529
:10096C000091B60010E024E076DE08952092B700E6
:10097C002092B80008950F930091B800002371F0F5
:10098C0003950093B80019D0083030F00F9301E0B4
:10099C000E94FD030F91EADF0F9108950F9329DE5A
:1009AC0030FF02D00F91F8CF0091B6000093B70042
:1009BC0001E00093B80001D008950F931F932F937B
:1009CC003F930091B7001091B80009D00ED017D00A
:1009DC0026D04FD03F912F911F910F910895222730
:1009EC00083010F00850239508953F9330E8002309
:1009FC0019F036950A95E9F7032F3F9108950F9357
:100A0C001F93113049F4A5ECB0E0A20FB21D3C913C
:100A1C003023332309F0AADF1F910F9108950F9310
:100A2C001F9338E04091BF00341B1317F8F446E0D5
:100A3C004695341B1317D0F0131B110F45E0A9EB8F
:100A4C00B0E0A40FB21DA21BA11B3C913023332399
:100A5C0069F03C91009530233C930F9301E00E9488
:100A6C00FD030F910FE00CD286DD80DF1F910F91FB
:100A7C0008950F931F93173071F42091C70002173C
:100A8C0051F40F9301E00E94FD030F910AEFF8D18E
:100A9C0072DD0E94D2061F910F9108951091B8003B
:100AAC00112321F00091B70027E0D5DD08950F93B5
:100ABC002092BF002092C00000E81FEFA9EBB0E02D
:100ACC0006E006950D931D930A95E1F70F91089595
:100ADC000F931F932F933F934F930091CA000023C2
:100AEC0081F432E00091C0000F9302E00E94FD03FC
:100AFC000F91A9EBB0E026E02695002341F011966A
:100B0C001EC04F913F912F911F910F9108952F93DC
:100B1C000C9100FD2CC0A30FB21D2A95C1F72F918B
:100B2C00A9EBB0E00D911C91069510FB07F91695F9
:100B3C001C930E93A30FB21D2A95A1F72BC02F93D4
:100B4C000C9107FD14C0A30FB21D2A95C1F72F916C
:100B5C00A9EBB0E00D911C91110F07FB10F9000FE0
:100B6C001C930E93A30FB21D2A95A1F713C011E08D
:100B7C000091C00001270093C0000091BF000395B5
:100B8C000093BF0010D027E0211B201B19F403E0B9
:100B9C0008D2B7CF08D0112309F00895B9D112E0CB
:100BAC00109360000895A9EBB0E016E0A10FB21D00
:100BBC0016952E913E91232B11F41A95D1F7089589
:100BCC00A9EBB0E046E01091BF00110F25E00D91AC
:100BDC004EDD13954A95D9F7089502E0A1ECB0E0EB
:100BEC00C3ECD0E031E007D0A30FB21DC30FD21D70
:100BFC000A95C9F708951F9317E01C9318831F914A
:100C0C0008950F931F932F934F93AF93BF93CF934D
:100C1C00DF9322E041E05527A1ECB0E0C3ECD0E03B
:100C2C000C9118810E942106A40FB21DC40FD21D75
:100C3C002A95B1F73FC0173009F459F00F931123DF
:100C4C0011F4D9DF04C01A9518830E9469060F911C
:100C5C0008950F931F932F93552341F55395E3DC80
:100C6C000F93BDDEC2DEAF93BF93A9EBB0E076E08D
:100C7C007150721BA70FB21D36E036951C911023D4
:100C8C00112321F4A250B2093A95C1F7BF91AF914B
:100C9C000F91332359F00C9317E026E02695121B85
:100CAC00231B120F2091BF00121B18832F911F9131
:100CBC000F910895DF91CF91BF91AF914F912F91EB
:100CCC001F910F91089503C02F9119C008952F9370
:100CDC002091B6001030C1F70217B1F78CDF2091CC
:100CEC00CD002A952093CD00222339F41F9313E0D5
:100CFC0010936000209261001F912F91E7CF0F930A
:100D0C001F932F93AF93BF93113091F468DE6DDE78
:100D1C00A5ECB0E0A20FB21D1C910123002341F001
:100D2C00009501230C93AF91BF9165DFAF93BF93F7
:100D3C00BF91AF912F911F910F91C8CF0F931F931C
:100D4C002F933F934F93A1ECB0E0C3ECD0E023E0A2
:100D5C0042E00D91199137E013137DDC4A95C9F7E8
:100D6C004F913F912F911F910F91089506E6A5EC9D
:100D7C00B0E00D930C9308950F931F932F93A5EC54
:100D8C00B0E022E00D911DE072DC0C911CE06FDCF8
:100D9C002F911F910F9108952092C80000E10093AC
:100DAC00C70008950091C700003119F017E026E044
:100DBC0052DC08950091CC000023F9F40091BF009F
:100DCC000023D9F00091C7001091C800003119F030
:100DDC00112349F004C0002710FF0FE00EC00F30A4
:100DEC0031F003950AC0002311F00A9506C000E10A
:100DFC0021E012271093C80000C00093C70008958B
:100E0C0019D084DDB3DDB2DF52DEE7DEC5DF089535
:100E1C0083DDB1DD5DDEF5DECDDF14D008958EDF30
:100E2C00CFDE00916000033021F09ADD37DEA4DFC5
:100E3C00B9DF089503E00093C9002092CA00209204
:100E4C00CC00089503D00AD012D008950091C900A7
:100E5C00002319F00A950093C90008950091CA0067
:100E6C0003950F3009F400270093CA0008950091F0
:100E7C00CC000395063009F400270093CC000895AC
:100E8C0024E632E00AD011D02AE031E006D00DD0B1
:100E9C0021E0332702D009D008951127021720F042
:100EAC00021B13950217E0F708950F933F93A2E6E8
:100EBC00B0E0A30FB21D4C91140F1A3028F03395EB
:100ECC001A501C9311E0F3CF1C933F910F9108958E
:100EDC000F931F932F9325E00FEF1FEF1A95F1F748
:100EEC000A95D9F72A95C1F72F911F910F91089563
:100EFC0014E01EBF1FE51DBF2224959A2DD968DB77
:100F0C0096DBFBD8CAD872DB2ED955DC01D00BC0CE
:100F1C00F89447D075DFE3DB0F9302E00E94FD03EA
:100F2C000F9178940895F8940DDB84DBF9DBDADB10
:100F3C0078942AC0F8947EDBD5DB05DC789424C049
:100F4C00F89416DBF4DA0EE175DB62DF68DF789477
:100F5C0000916F0002110E943C020E94580114C0C3
:100F6C00F894FBDA67DB2CDE0091610003950093AB
:100F7C0061001EE17894011307C056DAFCDA0027F1
:100F8C0000936D00C5DFCFCF7894A2DF0091600095
:100F9C00003049F2013071F2023091F2033001F36A
:0C0FAC00CFCF20926000209261000895D9
:00000001FF
